:100000000C94E1000C9409010C9409010C94090171
:100010000C9409010C9409010C9409010C94090138
:100020000C9409010C9409010C9409010C94090128
:100030000C9409010C9409010C9409010C94090118
:100040000C94EF0E0C9409010C94F00D0C94220EFC
:100050000C9409010C9409010C9409010C940901F8
:100060000C9409010C94090100407A10F35A00A085
:10007000724E18090010A5D4E80000E87648170071
:1000800000E40B54020000CA9A3B000000E1F505B1
:10009000000080969800000040420F000000A086FB
:1000A00001000000102700000000E803000000002D
:1000B0006400000000000A000000000001000000D1
:1000C00000002C76D888DC674F0823DFC1DFAE59EB
:1000D000E1B1B796E5E3E453C63AE651997696E87E
:1000E000E6C28426EB898C9B62ED407C6FFCEFBC02
:1000F0009C9F40F2BAA56FA5F490055A2AF75C932D
:100100006B6CF9676DC11BFCE0E40D47FEF520E662
:10011000B500D0ED902E0300943577050080841E45
:10012000080000204E0A000000C80C333333330FA0
:10013000986E12831141EF8D2114893BE65516CF3D
:10014000FEE6DB18D1844B381BF77C1D901DA4BB49
:10015000E424203284725E228100C9F124ECA1E5FE
:100160003D27000000080002010000030407000012
:10017000000000000000010204081020408001027D
:1001800004081020010204081020040404040404DC
:100190000404020202020202030303030303000039
:1001A0000000230026002900000000002500280090
:1001B0002B0000000000240027002A00C004520E7B
:1001C000030511241FBECFEFD8E0DEBFCDBF12E084
:1001D000A0E0B1E0E6E8F7E302C005900D92A43399
:1001E000B107D9F723E0A4E3B2E001C01D92AF3F0D
:1001F000B207E1F710E0C0EED0E004C02197FE01A5
:100200000E949716CE3DD107C9F70E94800E0C942C
:10021000B61B0C940000DF92EF92FF920F931F9396
:10022000CF93DF93CDB7DEB76F970FB6F894DEBFED
:100230000FBECDBF8C01D62E7C018FEFE81AF80AD5
:10024000C7010E942B05F801D082CE0101960E94C1
:100250002B058FE1FE013196D70101900D928A9511
:10026000E1F7CE0101960E94300560E0F80180813F
:100270000E9422106F960FB6F894DEBF0FBECDBF5E
:10028000DF91CF911F910F91FF90EF90DF90089534
:10029000AF92BF92CF92DF92EF92FF920F931F9394
:1002A000CF93DF93EC0189910E94DE0FBC01990F7F
:1002B000880B990B1F921F9221E02F9328E12F9317
:1002C00020E5A22EB12CC12CD12CE12CF12C8701E0
:1002D0002FEF33E040E050E00E94B5100E94A514DB
:1002E00020E030E040E251E40E94FB13AB01BC018E
:1002F000CE010E9431050F900F900F900F90CE010C
:10030000DF91CF911F910F91FF90EF90DF90CF90F1
:10031000BF90AF900C94A605DF92EF92FF920F93DF
:100320001F93CF93DF93CDB7DEB76F970FB6F894D7
:10033000DEBF0FBECDBF8C01D62E7C018FEFE81A39
:10034000F80AC7010E942B05F801D082CE01019660
:100350000E942B058FE1FE013196D70101900D928D
:100360008A95E1F7CE0101960E94300560E0F80120
:1003700080810E9422106F960FB6F894DEBF0FBEE8
:10038000CDBFDF91CF911F910F91FF90EF90DF9044
:100390000895CF93DF93EC0189910E94DE0FBC0199
:1003A000990F880B990B0E94A51423E333E34FE9BF
:1003B00050E40E945A1520E030E040E85AE30E94E1
:1003C0005A1520E030E048EC52E40E945A150E9491
:1003D000D50AAB01BC01CE010E943105CE01DF91EF
:1003E000CF910C94A605EF92FF920F931F93CF939A
:1003F000DF93CDB7DEB768970FB6F894DEBF0FBEB8
:10040000CDBF60E971E0CE0107960E94691160E9F5
:1004100071E0CE0143960E946911BE016D5E7F4F6F
:10042000CE010D960E946A1263E971E0CE010D962D
:100430000E94FD12BE01695F7F4F0E94EA12BC015B
:10044000CE0101960E946A12CE0101960E94130B02
:10045000CE0101960E94F710CE010D960E94F71072
:10046000CE0143960E94F710CE0107960E94F71026
:10047000E0905C02F0905D0200915E0210915F02DC
:1004800020910B0130910C0140910D0150910E0112
:1004900060E080EC92E00E946809882321F083EC00
:1004A00092E00E94500968960FB6F894DEBF0FBE26
:1004B000CDBFDF91CF911F910F91FF90EF900895E5
:1004C000CF92DF92EF92FF92CF93DF93CDB7DEB75B
:1004D00062970FB6F894DEBF0FBECDBF6B017C01F3
:1004E0000E94390FAB01BC012AE0CE010D960E949B
:1004F000E011BE01635F7F4FCE0107960E946A1232
:1005000064EA71E0CE0107960E94FD12BC01CE01A3
:1005100001960E946A12CE0101960E94130BCE0131
:1005200001960E94F710CE0107960E94F710CE01A7
:100530000D960E94F71080EA92E00E946F0B8823CC
:1005400021F080EC92E00E940F0A60915A027091B3
:100550005B026F5F7F4F70935B0260935A02623061
:10056000710508F4CCC04AE0CE010D960E94B4118A
:10057000BE01635F7F4FCE0107960E946A1269EC4D
:1005800071E0CE0107960E94FD12BC01CE010196DA
:100590000E946A12CE0101960E94130BCE010196B1
:1005A0000E94F710CE0107960E94F710CE010D961B
:1005B0000E94F71080E892E00E94C901AB01BC01E3
:1005C00040930B0150930C0160930D0170930E0149
:1005D00021E0CE010D960E948E1268EA71E0CE01F4
:1005E00007960E946911BE01635F7F4FCE01079697
:1005F0000E94EA12BC01CE0101960E946A12CE014D
:1006000001960E94130BCE0101960E94F710CE01B5
:1006100007960E94F710CE010D960E94F71021E078
:10062000B701A601CE010D960E948E1264EB71E017
:10063000CE0107960E946911BE01635F7F4FCE0114
:1006400007960E94EA12BC01CE0101960E946A122E
:10065000CE0101960E94130BCE0101960E94F71065
:10066000CE0107960E94F710CE010D960E94F7105A
:1006700080EC92E00E941D0A60EA71E0882311F08C
:100680006DE971E0CE010D960E9469116CEB71E08D
:10069000CE0107960E946911BE01635F7F4FCE01B4
:1006A00007960E94EA12BC01CE0101960E946A12CE
:1006B000CE0101960E94130BCE0101960E94F71005
:1006C000CE0107960E94F710CE010D960E94F710FA
:1006D00080EC92E00E941D0A682F83EC92E00E9459
:1006E000470860E971E0CE0101960E946911CE01D0
:1006F00001960E94130BCE0101960E94F71062969C
:100700000FB6F894DEBF0FBECDBFDF91CF91FF9043
:10071000EF90DF90CF9008958F929F92AF92BF920B
:10072000EF92FF920F931F934B015C0181E10E94B6
:100730008C10019709F066C081E592E00E9458068E
:10074000882309F442C080EC92E00E940F0AA501C0
:1007500094016091070170910801809109019091C5
:100760000A010E94F6138823F1F08092070190920B
:100770000801A0920901B0920A0120910B01309169
:100780000C0140910D0150910E018501740161E051
:1007900080EC92E00E94680982E08093060183EC7D
:1007A00092E00E94500980EC92E00E941A0A88238D
:1007B00089F183EC92E01F910F91FF90EF90BF9031
:1007C000AF909F908F900C94500980EC92E00E9423
:1007D0001A0A882379F020910B0130910C01409185
:1007E0000D0150910E018501740161E080EC92E0F1
:1007F0000E94680981E08093060183EC92E00E94E8
:100800005009A5CF81E592E00E94780682E08093AE
:1008100006019DCF1F910F91FF90EF90BF90AF9079
:100820009F908F90089583EC92E00C9461074F9213
:100830005F926F927F928F929F92AF92BF92CF9270
:10084000EF92FF920F931F9380E692E00E9448017F
:1008500060935C0270935D0280935E0290935F02EE
:100860008FE392E00E945806882351F060915C0269
:1008700070915D0280915E0290915F020E948C03F4
:1008800088E492E00E945806882351F060915C024F
:1008900070915D0280915E0290915F020E94600201
:1008A00086E392E00E94580681110E94F30183ECD6
:1008B00092E00E944B09882309F455C084E392E03A
:1008C0000E942A0A809106018130B9F08230A9F194
:1008D0000E94130461E070E080E090E01F910F91AE
:1008E000FF90EF90CF90BF90AF909F908F907F90B0
:1008F0006F905F904F900C946A0F40905C02509004
:100900005D0260905E0270905F0280900B0190909B
:100910000C01A0900D01B0900E0180EC92E00E94BD
:100920001A0ACC24C39483017201A5019401682F93
:1009300083EC92E00E94B808CBCF40905C025090CC
:100940005D0260905E0270905F0280900B0190905B
:100950000C01A0900D01B0900E0180EC92E00E947D
:100960001A0AC12CE0CF84E392E00E947E0AB0CF45
:1009700084E392E00E942A0A60E081E10C94221054
:1009800044E050E060E070E083EC92E00E94820678
:100990006DE080EC92E00E945E0964E180EA92E002
:1009A0000E94180B62E180E892E00E948C016FE0E7
:1009B00080E692E00E940B0143E550E060E070E0C9
:1009C00081E592E00E94420621E04DE750E060E0C0
:1009D00070E088E492E00E944C0621E046E050E09E
:1009E00060E070E08FE392E00E944C0621E04CE46E
:1009F0005DE160E070E086E392E00E944C0684E3F3
:100A000092E00C94250A84E392E00E94290A86E38E
:100A100092E00E9457068FE392E00E94570688E416
:100A200092E00E94570681E592E00E94570681E617
:100A300092E00E94300581E892E00E94300580EA51
:100A400092E00E94550B80EC92E00E94670983ECD3
:100A500092E00C941307FC01158E148E168E0895E7
:100A60000895FC01848D958DDC01AA0FBB1FAA0F90
:100A7000BB1FAE0FBF1F4D935D936D937C93139778
:100A80000196873091051CF4958F848F0895158EFB
:100A9000148E81E0868F08954F925F926F927F92BD
:100AA0009F92AF92BF92CF92DF92EF92FF920F93FD
:100AB0001F93CF93DF935C01FC01968C8C01D0E0F7
:100AC000C0E0C12CD12C7601911035C0F501648DA8
:100AD000758DC617D70794F0C701B601DF91CF9186
:100AE0001F910F91FF90EF90DF90CF90BF90AF904C
:100AF0009F907F906F905F904F900895F801408095
:100B0000518062807380072E000C880B990B0E9425
:100B1000A5149B01AC01C301B2010E94FB139B0110
:100B2000AC01C701B6010E948A136B017C012196BA
:100B30000C5F1F4FC9CFC730D10571F2F80140805B
:100B400051806280738067E070E0DDCF0E944C05C9
:100B50000C94D50AFC01268D211103C0848D958D3E
:100B6000089587E090E008955F926F927F928F9250
:100B70009F92AF92BF92CF92DF92EF92FF920F932C
:100B80001F93CF93DF93EC01688079800A811B81EA
:100B90005E8C4C01B12CA12C87E090E0511002C07A
:100BA0008C8D9D8DA816B906A4F4F401C190D19046
:100BB000E190F1904F019301A801C701B6010E9495
:100BC000F61387FF02C036018701FFEFAF1ABF0A95
:100BD000E3CFB301C801DF91CF911F910F91FF9037
:100BE000EF90DF90CF90BF90AF909F908F907F90CD
:100BF0006F905F9008955F926F927F928F929F9215
:100C0000AF92BF92CF92DF92EF92FF920F931F931A
:100C1000CF93DF93EC01688079800A811B815E8C21
:100C20004C01B12CA12C87E090E0511002C08C8DBA
:100C30009D8DA816B906A4F4F401C190D190E1905D
:100C4000F1904F019301A801C701B6010E9455150B
:100C5000181614F436018701FFEFAF1ABF0AE3CF6D
:100C6000B301C801DF91CF911F910F91FF90EF90D9
:100C7000DF90CF90BF90AF909F908F907F906F90BC
:100C80005F900895FC0115821682178210864083BA
:100C90005183628373830895FC0115821682178243
:100CA000108640835183628373832483089508955B
:100CB000FC0185819681A781B0850097A105B105CA
:100CC00049F00197A109B10985839683A783B0876D
:100CD00080E008958481882349F0408151816281B8
:100CE00073814583568367837087089581E00895F3
:100CF000FC01408151816281738145835683678302
:100D0000708708958F929F92AF92BF92CF92DF9299
:100D1000EF92FF920F931F93CF93DF93CDB7DEB780
:100D200029970FB6F894DEBF0FBECDBF8C014A01E4
:100D30005B0180E8E0E1F1E0D80101900D928A9535
:100D4000E1F7680181E8C80ED11C40E050E0BA012B
:100D5000C6010E94420678018CE8E80EF11C63E3AC
:100D600072E0C7010E946911B501A401CE0101968C
:100D70000E94420689E0FE013196D60101900D9253
:100D80008A95E1F7CE0101960E945706F801E058D6
:100D9000FF4F10823A9681E090E09183808367EC68
:100DA00071E0C7010E947F1261E08BE00E94221077
:100DB00061E082E00E94221061E086E00E94221041
:100DC00061E088E00E94221061E089E00E94221028
:100DD00061E08AE00E94221061E085E00E9422101A
:100DE00061E087E00E94221061E08CE00E94221006
:100DF00061E084E00E94221061E083E00E94221002
:100E000029960FB6F894DEBF0FBECDBFDF91CF910C
:100E10001F910F91FF90EF90DF90CF90BF90AF9018
:100E20009F908F900895CF93DF93EC0184579F4F4D
:100E30000E94F710CE018F579F4FDF91CF910C94F6
:100E400057060F931F93CF93FC01E058FF4F20816B
:100E5000222349F06BEC71E084579F4FCF911F9193
:100E60000F910C947F12C62F8C0161E08CE00E94E0
:100E70005E1061E084E00E945E1061E083E00E9409
:100E80005E10C13069F080F0C230A9F0C330B1F01B
:100E90006FEC71E0C80184579F4F0E947F1204C01D
:100EA00060E08CE00E945E1061E087E0CF911F91CE
:100EB0000F910C945E1060E084E0F4CF60E083E07A
:100EC000F1CFCF92DF92EF92FF920F931F93CF93C8
:100ED000DF93FC01E058FF4F2081222309F48CC0EE
:100EE0008C0161E08CE00E945E1061E084E00E9471
:100EF0005E1061E083E00E945E1068018CE8C80E1D
:100F0000D11C7801EAE8EE0EF11CF70160817181D5
:100F100061507109C6010E946613F801D0E0C0E07B
:100F20009081981739F021963896C031D105C1F7D4
:100F3000D0E0C0E083E0CC0FDD1F8A95E1F7C00F61
:100F4000D11F69818BE00E945E106A8182E00E945D
:100F50005E106B8186E00E945E106C8188E00E94CA
:100F60005E106D8189E00E945E106E818AE00E94B1
:100F70005E106F8185E00E945E10F7018081918193
:100F80008230910509F441C040F4019759F063EDB6
:100F900071E0C6010E947F1209C00597C0F760E0AA
:100FA00083E002C060E08CE00E945E10F701608187
:100FB0007181C6010E94661360E08E3239F4F70138
:100FC0008081918101969183808361E087E00E9416
:100FD0005E10F70180819181019691838083F801F1
:100FE000E057FF4F208131812817390728F481E02D
:100FF00090E0F70191838083DF91CF911F910F9152
:10100000FF90EF90DF90CF90089560E084E0CCCF28
:101010001F93CF93DF93EC01162F61E08CE00E94C9
:101020005E1061E084E00E945E1061E083E00E9457
:101030005E1060E08BE00E945E1060E082E00E9443
:101040005E1060E086E00E945E1060E088E00E9432
:101050005E1060E089E00E945E1060E08AE00E941D
:101060005E1060E085E00E945E1060E087E00E9414
:101070005E10FE01E058FF4F108261E0111101C0C7
:1010800063E0CE01DF91CF911F910C9421071F9354
:10109000CF93DF93EC01162F8F579F4F0E94580676
:1010A000882339F0612FCE01DF91CF911F910C94ED
:1010B0000808DF91CF911F9108950F931F93CF934D
:1010C000DF93CDB7DEB72C970FB6F894DEBF0FBE17
:1010D000CDBF8C01BA01A90121E0CE0107960E9483
:1010E0008E126EE2CE0107960E9484132B853C85FA
:1010F00097FD26C023303105B1F469EC71E0CE01D3
:1011000001960E946911BE01695F7F4FCE01019671
:101110000E94EA12BC01CE0107960E945312CE0132
:1011200001960E94F7108B859C8567ED71E004970E
:1011300061F4BE01695F7F4FC8010E944A1208C076
:1011400023303105B1F36BED71E0C8010E946911E4
:10115000CE0107960E94F710C8012C960FB6F8949E
:10116000DEBF0FBECDBFDF91CF911F910F910895CC
:101170004F925F926F927F928F929F92AF92BF92A7
:10118000CF92EF92FF920F931F93CF93DF93CDB740
:10119000DEB72C970FB6F894DEBF0FBECDBFFC01B3
:1011A000E058FF4F7081772389F1470158012901E9
:1011B0003A01F62E8C0163E372E0CE0107960E949D
:1011C0006911FF20C9F160EA71E0CE0107960E9423
:1011D0007F1258018CE8A80EB11CBE01695F7F4FD9
:1011E000C5010E94441381110DC0BE01695F7F4F8C
:1011F000C5010E945312F801E657FF4F81E090E0CD
:1012000091838083CE0107960E94F7102C960FB62B
:10121000F894DEBF0FBECDBFDF91CF911F910F912C
:10122000FF90EF90CF90BF90AF909F908F907F9066
:101230006F905F904F900895A3019201C1101AC062
:1012400020E030E040E051E4C501B4010E94F61313
:1012500018160CF0B8CF20E030E040EE51E4C501A4
:10126000B4010E94551587FD03C06FED71E0ADCF4D
:10127000A5019401B801CE0101960E945D08BE014E
:101280006F5F7F4FCE0107960E947312CE010196C9
:101290000E94F7109ECF80589F4FFC0180810895D7
:1012A000CF93DF93EC018F579F4F0E947806C05871
:1012B000DF4F81E08883DF91CF910895FC01862F75
:1012C00011829FEF9283608361E00C942210089555
:1012D0004F925F926F927F928F929F92AF92BF9246
:1012E000CF92DF92EF92FF920F931F93CF93DF93F2
:1012F000CDB7DEB768970FB6F894DEBF0FBECDBF8F
:101300006C0129013A0147015801662311F0FC01E3
:101310001182F601118111111CC020E030E040E083
:1013200051E4C501B4010E94F61318169CF420E0A4
:1013300030E040EE51E4C501B4010E94551511E0C2
:1013400087FF08C0A3019201C501B4010E94551591
:1013500087FD10E0F6018281082E000C990B18170A
:10136000190609F45AC01283612F80810E945E1011
:1013700060E971E0CE0107960E946911F601828151
:1013800060EA71E0813011F46DE971E0CE014396BD
:101390000E9469116EEB71E0CE010D960E946911F9
:1013A000BE016D5E7F4FCE010D960E94EA12BE0116
:1013B000695F7F4F0E94EA12BC01CE0101960E9434
:1013C0006A12CE0101960E94130BCE0101960E9473
:1013D000F710CE010D960E94F710CE0143960E94A1
:1013E000F710CE0107960E94F71081E068960FB6BD
:1013F000F894DEBF0FBECDBFDF91CF911F910F914B
:10140000FF90EF90DF90CF90BF90AF909F908F9024
:101410007F906F905F904F90089580E0E7CFFC0140
:101420008181811106C081E0818360E080810C941C
:101430005E100895FC018181089521E0FC01828104
:10144000811101C020E0822F0895FC0111821082D9
:1014500008950895CF93DF93CDB7DEB72C970FB6DD
:10146000F894DEBF0FBECDBFFC0120813181232B5C
:10147000E1F1118210826AE070E080E090E00E9469
:101480006A0F80E88093610082E08093610026E02B
:1014900040E056E960E070E085E593E00E948E0D43
:1014A00040E162E070E0CE0107960E94881163EE91
:1014B00071E0CE0101960E946911BE01695F7F4F04
:1014C000CE0101960E94EA1266EF71E00E94FD12C1
:1014D000BC0185E593E00E94DD0ECE0101960E94DD
:1014E000F710CE0107960E94F7102C960FB6F894CD
:1014F000DEBF0FBECDBFDF91CF910895CF93DF93B5
:10150000CDB7DEB72C970FB6F894DEBF0FBECDBFB8
:10151000FC012081318121303105F1F121E030E001
:10152000318320836AE070E080E090E00E946A0FDF
:1015300080E88093610083E08093610026E040E0D2
:101540005CE261E070E085E593E00E948E0D40E191
:1015500063E070E0CE0107960E94881168EF71E0A9
:10156000CE0101960E946911BE01695F7F4FCE01D5
:1015700001960E94EA1266EF71E00E94FD12BC0122
:1015800085E593E00E94DD0ECE0101960E94F710E2
:10159000CE0107960E94F7102C960FB6F894DEBF86
:1015A0000FBECDBFDF91CF9108950F931F9320E021
:1015B00030E040E251E40E945A150E94C7150E9493
:1015C0006D148B01CB0177FD1CC065E070E00E94BB
:1015D0002316FC01E65FFD4F6081062E000C770BA1
:1015E000060F171FB801110F880B990B0E94A51445
:1015F00020E030E040E251E40E94FB131F910F9184
:10160000089588279927801B910B65E070E00E9460
:101610002316FC01E65FFD4F8081082E000C990B1C
:10162000081B190BDFCFBC0185E593E00C94CB0EB2
:10163000DF92EF92FF920F931F93CF93DF93CDB77B
:10164000DEB76F970FB6F894DEBF0FBECDBF8C012B
:10165000D62E7C018FEFE81AF80AC7010E942B05ED
:10166000F801D082CE0101960E942B058FE1FE0188
:101670003196D70101900D928A95E1F7CE0101963E
:101680000E94300561E0F80180810E9422106F966F
:101690000FB6F894DEBF0FBECDBFDF91CF911F9183
:1016A0000F91FF90EF90DF90089501960C94300514
:1016B000FC0180810E94DE0FBC01990F880B990B01
:1016C0000E94A51423E333E34FE950E40E945A1526
:1016D00020E030E040E85AE30E945A1508958F92C6
:1016E0009F92AF92BF92CF92DF92EF92FF920F93B1
:1016F0001F93CF93DF93CDB7DEB762970FB6F89401
:10170000DEBF0FBECDBF8C010E94580B6B017C0168
:101710000F5F1F4FBC01A601C8010E943105C8011F
:101720000E94FB054B015C01C8010E94B4059B01AE
:10173000AC01C501B4010E9489134B015C0122E098
:10174000B701A601CE010D960E948E126FE072E0E5
:10175000CE0107960E946911BE01635F7F4FCE01E3
:1017600007960E94EA12BC01CE0101960E946A12FD
:10177000CE0101960E94130BCE0101960E94F71034
:10178000CE0107960E94F710CE010D960E94F71029
:10179000C8010E94AA054AE0BC01CE010D960E9434
:1017A000881163EF71E0CE0107960E946911BE01B6
:1017B000635F7F4FCE0107960E94EA1265E172E0F7
:1017C0000E94FD12BC01CE0101960E946A12CE0158
:1017D00001960E94130BCE0101960E94F710CE01D4
:1017E00007960E94F710CE010D960E94F710C801CF
:1017F0000E94B405AB01BC0122E0CE010D960E940F
:101800008E1269EC71E0CE0107960E946911BE014B
:10181000635F7F4FCE0107960E94EA12BC01CE01A2
:1018200001960E946A12CE0101960E94130BCE010E
:1018300001960E94F710CE0107960E94F710CE0184
:101840000D960E94F710C8010E94FB05AB01BC0178
:1018500022E0CE010D960E948E1264EA71E0CE0164
:1018600007960E946911BE01635F7F4FCE01079604
:101870000E94EA12BC01CE0101960E946A12CE01BA
:1018800001960E94130BCE0101960E94F710CE0123
:1018900007960E94F710CE010D960E94F710C8011E
:1018A0000E94FB056B017C01C8010E94B4059B01ED
:1018B000AC01C701B6010E948913AB01BC0122E053
:1018C000CE010D960E948E1268E172E0CE0107965D
:1018D0000E946911BE01635F7F4FCE0107960E948F
:1018E000EA12BC01CE0101960E946A12CE01019655
:1018F0000E94130BCE0101960E94F710CE010796AD
:101900000E94F710CE010D960E94F7106CE172E074
:10191000CE0101960E946911CE0101960E94130B1F
:10192000CE0101960E94F71011E02EEA37E441E65D
:101930005EE3C501B4010E94551518160CF010E0C5
:10194000812F62960FB6F894DEBF0FBECDBFDF9138
:10195000CF911F910F91FF90EF90DF90CF90BF90AC
:10196000AF909F908F900895FC01918D228D892FCB
:1019700090E0805C9F4F821B91098F739927089597
:10198000FC01918D828D981731F0828DE80FF11D49
:10199000858D90E008958FEF9FEF0895FC01918D64
:1019A000828D981761F0A28DAE0FBF2FB11D5D968D
:1019B0008C91928D9F5F9F73928F90E008958FEF2F
:1019C0009FEF0895FC01538D448D252F30E0842F27
:1019D00090E0821B930B541710F0CF960895019757
:1019E000089588E49EE0892B49F080E090E0892BFF
:1019F00029F00E94480E81110C9400000895FC010A
:101A0000A48DA80FB92FB11DA35ABF4F2C91848D5F
:101A100090E001968F739927848FA689B7892C93BC
:101A2000A089B1898C91837080648C93938D848D0F
:101A3000981306C00288F389E02D80818F7D808312
:101A40000895CF93DF93EC01888D8823B9F0AA899C
:101A5000BB89E889F9898C9185FD03C0808186FD69
:101A60000DC00FB607FCF7CF8C9185FFF2CF8081B8
:101A700085FFEDCFCE010E94FF0CE9CFDF91CF9122
:101A80000895EF92FF920F931F93CF93DF93EC0192
:101A900081E0888F9B8D8C8D98131AC0E889F98915
:101AA000808185FF15C09FB7F894EE89FF89608318
:101AB000E889F98980818370806480839FBF81E099
:101AC00090E0DF91CF911F910F91FF90EF900895DB
:101AD000F62E0B8D10E00F5F1F4F0F731127E02EB6
:101AE0008C8D8E110CC00FB607FCFACFE889F989EE
:101AF000808185FFF5CFCE010E94FF0CF1CFEB8DE9
:101B0000EC0FFD2FF11DE35AFF4FF0829FB7F894C1
:101B10000B8FEA89FB8980818062CFCFCF92DF92E1
:101B2000EF92FF921F93CF93DF93EC016A017B0149
:101B3000122FE889F98982E08083C11481EED806EA
:101B4000E104F104A1F060E079E08DE390E0A70109
:101B500096010E94371621503109410951095695C5
:101B6000479537952795211580E1380798F0E88942
:101B7000F989108260E874E88EE190E0A70196018F
:101B80000E94371621503109410951095695479550
:101B900037952795EC85FD853083EE85FF8520837D
:101BA000188EEC89FD891083EA89FB898081806128
:101BB0008083EA89FB89808188608083EA89FB8948
:101BC000808180688083EA89FB8980818F7D808322
:101BD000DF91CF911F91FF90EF90DF90CF9008950C
:101BE0001F920F920FB60F9211242F938F939F93F2
:101BF000EF93FF93E0916503F09166038081E0919C
:101C00006B03F0916C0382FD1BC0908180916E0389
:101C10008F5F8F7320916F03821741F0E0916E0305
:101C2000F0E0EB5AFC4F958F80936E03FF91EF919C
:101C30009F918F912F910F900FBE0F901F9018952D
:101C40008081F4CF1F920F920FB60F9211242F9321
:101C50003F934F935F936F937F938F939F93AF9334
:101C6000BF93EF93FF9385E593E00E94FF0CFF91F4
:101C7000EF91BF91AF919F918F917F916F915F9104
:101C80004F913F912F910F900FBE0F901F9018957D
:101C900085E593E00E94B40C21E0892B09F420E053
:101CA000822F0895E5E5F3E01382128288EE93E037
:101CB000A0E0B0E084839583A683B78383E292E0BB
:101CC0009183808385EC90E09587848784EC90E015
:101CD0009787868780EC90E0918B808B81EC90E0F9
:101CE000938B828B82EC90E0958B848B86EC90E0DA
:101CF000978B868B118E128E138E148E08950895F5
:101D00000E94A30F0E947F0E0E94B804C1EFDCE086
:101D10000E9417042097E1F30E94F10CF9CFAF92D3
:101D2000BF92CF92DF92EF92FF920F931F93CF93C8
:101D3000DF936C017B018B01040F151FEB015E012A
:101D4000AE18BF08C017D10759F06991D601ED91BF
:101D5000FC910190F081E02DC6010995892B79F75E
:101D6000C501DF91CF911F910F91FF90EF90DF9010
:101D7000CF90BF90AF900895FB0101900020E9F74C
:101D80003197AF01461B570BDC01ED91FC910280AE
:101D9000F381E02D0994DB0114964D915C91159728
:101DA0006D917C91DC01ED91FC910280F381E02D3D
:101DB000099461E372E00C94BC0E0F931F93CF93D0
:101DC000DF93EC010E94CB0E8C01CE010E94D90E54
:101DD000800F911FDF91CF911F910F9108951F9256
:101DE0000F920FB60F9211242F933F938F939F93CF
:101DF000AF93BF938091F3039091F403A091F50307
:101E0000B091F6033091F20323E0230F2D3758F5FC
:101E10000196A11DB11D2093F2038093F3039093CB
:101E2000F403A093F503B093F6038091F703909128
:101E3000F803A091F903B091FA030196A11DB11D19
:101E40008093F7039093F803A093F903B093FA03F8
:101E5000BF91AF919F918F913F912F910F900FBEA6
:101E60000F901F90189526E8230F0296A11DB11D13
:101E7000D2CF2FB7F8946091F3037091F40380915F
:101E8000F5039091F6032FBF08953FB7F894809122
:101E9000F7039091F803A091F903B091FA0326B5E6
:101EA000A89B05C02F3F19F00196A11DB11D3FBF92
:101EB000BA2FA92F982F8827BC01CD01620F711D61
:101EC000811D911D42E0660F771F881F991F4A955B
:101ED000D1F708958F929F92AF92BF92CF92DF92E7
:101EE000EF92FF926B017C010E94450F4B015C0158
:101EF000C114D104E104F104E9F00E9488130E94A6
:101F0000450F681979098A099B09683E7340810564
:101F1000910570F321E0C21AD108E108F10888EEBA
:101F2000880E83E0981EA11CB11CC114D104E104E9
:101F3000F10429F7FF90EF90DF90CF90BF90AF9022
:101F40009F908F900895789484B5826084BD84B505
:101F5000816084BD85B5826085BD85B5816085BDA4
:101F6000EEE6F0E0808181608083E1E8F0E01082BD
:101F7000808182608083808181608083E0E8F0E0FE
:101F8000808181608083E1EBF0E0808184608083E8
:101F9000E0EBF0E0808181608083EAE7F0E080811F
:101FA000846080838081826080838081816080837F
:101FB0008081806880831092C10008958E3008F07F
:101FC0008E5020910F0190E4299F90011124877079
:101FD000822B80937C0080917A00806480937A00C9
:101FE00080917A0086FDFCCF8091780090917900F5
:101FF0000895833081F028F4813099F08230A9F07F
:1020000008958730A9F08830C9F08430B1F4809108
:1020100080008F7D03C0809180008F778093800047
:10202000089584B58F7784BD089584B58F7DFBCFE7
:102030008091B0008F778093B00008958091B000B8
:102040008F7DF9CFCF93DF9390E0FC01EA58FE4FEC
:10205000249186579E4FFC0184918823C9F090E01B
:10206000880F991FFC01EE54FE4FA591B491FC011D
:10207000E855FE4FC591D49161110DC09FB7F894FA
:102080008C91209582238C938881282328839FBF5D
:10209000DF91CF910895623051F49FB7F8943C914D
:1020A000822F809583238C93E8812E2BEFCF8FB7DF
:1020B000F894EC912E2B2C938FBFEACF1F93CF93E4
:1020C000DF93282F30E0F901EE59FE4F8491F9019A
:1020D000EA58FE4FD491F901E657FE4FC491CC2344
:1020E000A9F0162F81110E94F90FEC2FF0E0EE0FEE
:1020F000FF1FE855FE4FA591B4918FB7F894EC916E
:10210000111108C0D095DE23DC938FBFDF91CF91F2
:102110001F910895DE2BF8CFCF93DF93282F30E067
:10212000F901EE59FE4F8491F901EA58FE4FD4911E
:10213000F901E657FE4FC491CC23A1F081110E9412
:10214000F90FEC2FF0E0EE0FFF1FE256FE4FA591C6
:10215000B491EC91ED2381E090E009F480E0DF910F
:10216000CF91089580E090E0FACF4F925F926F9206
:102170007F92AF92BF92CF92DF92EF92FF920F9336
:102180001F93CF93DF93CDB7DEB729013A019B01AF
:10219000AC01241935094609570989899A89AB89FF
:1021A000BC89BC01CD016A197B098C099D090E947B
:1021B0001316A801970124193509460957090E94E9
:1021C0005916CA01B9016A0D7B1D8C1D9D1DDF9139
:1021D000CF911F910F91FF90EF90DF90CF90BF9024
:1021E000AF907F906F905F904F9008950895FC019D
:1021F00080819181009711F00C9466170895CF9318
:10220000DF93EC0188819981009711F00E94661795
:10221000198218821D821C821B821A82DF91CF9143
:1022200008950F931F93CF93DF93EC018B016F5FA2
:102230007F4F888199810E94EF17009751F0998311
:1022400088831B830A8381E0DF91CF911F910F91D7
:10225000089580E0F9CFCF93DF93EC0188819981D5
:10226000892B49F08A819B818617970720F081E0AE
:10227000DF91CF910895CE010E9411118823C1F3FF
:102280008C819D81892B99F7E881F9811082EFCFAC
:10229000EF92FF920F931F93CF93DF93EC017B019B
:1022A0008A01BA010E942B1181110BC0CE010E943C
:1022B000FF10CE01DF91CF911F910F91FF90EF9012
:1022C00008951D830C83B701888199810E94C918E4
:1022D000F0CFFC01118210821382128215821482C7
:1022E0006115710551F0FB0101900020E9F731976C
:1022F000AF01461B570B0C9448110895FB01019048
:102300000020E9F73197AF01461B570B0C94481199
:102310000F931F93CF93DF93CDB7DEB762970FB6BE
:10232000F894DEBF0FBECDBF8C01CB01F801118246
:102330001082138212821582148250E0BE016F5FF8
:102340007F4F0E94D018BE016F5F7F4FC8010E946F
:102350007E1162960FB6F894DEBF0FBECDBFDF913F
:10236000CF911F910F9108950F931F93CF93DF93F8
:10237000CDB7DEB761970FB6F894DEBF0FBECDBF05
:102380008C01CB01F8011182108213821282158216
:10239000148250E0BE016F5F7F4F0E941319BE018F
:1023A0006F5F7F4FC8010E947E1161960FB6F8944F
:1023B000DEBF0FBECDBFDF91CF911F910F9108956A
:1023C0000F931F93CF93DF93CDB7DEB7A1970FB6CF
:1023D000F894DEBF0FBECDBF8C01CB01BA01F8016E
:1023E00011821082138212821582148230E0AE01B3
:1023F0004F5F5F4F0E94E618BE016F5F7F4FC801BD
:102400000E947E11A1960FB6F894DEBF0FBECDBF1D
:10241000DF91CF911F910F9108950F931F93CF9349
:10242000DF938C01EB01FC0180819181009701F128
:102430006881798161157105C9F026EF30E1232BA0
:10244000A9F0428153812C813D814217530770F0DE
:102450000E94C9188C819D81F801958384831D8217
:102460001C82DF91CF911F910F9108950E946617F2
:1024700088819981F801918380838A819B819383EC
:1024800082838C819D8195838483198218821B822B
:102490001A82E5CFFC01118210821382128215820A
:1024A00014820C940D12CF93DF93EC01FB0186177D
:1024B000970749F0608171816115710541F0448190
:1024C00055810E944811CE01DF91CF9108950E945D
:1024D000FF10F9CFFC011182108213821282158243
:1024E00014820C945312CF93DF93EC018617970755
:1024F00011F00E940D12CE01DF91CF910895CF937C
:10250000DF93EC016115710531F00E947E11CE015F
:10251000DF91CF9108950E94FF10F9CFEF92FF92C3
:102520000F931F93CF93DF93CDB7DEB7A1970FB66D
:10253000F894DEBF0FBECDBF7C01CB01BA01F7011D
:1025400011821082138212821582148242E0420F9D
:102550008E010F5F1F4F0E94AC16BC01C7010E9485
:102560007F12A1960FB6F894DEBF0FBECDBFDF91EC
:10257000CF911F910F91FF90EF900895EF92FF92EE
:102580000F931F93CF93DF936115710541F480E0A2
:10259000DF91CF911F910F91FF90EF90089541151A
:1025A0005105B1F07B01EC010C811D81040F151F59
:1025B000B8010E942B11882351F3288139818C8125
:1025C0009D81B701820F931F0E94C9181D830C8340
:1025D00081E0DECFCF93DF93EC01FB014481558195
:1025E000608171810E94BE12811103C0CE010E94E0
:1025F000FF10CE01DF91CF910895CF93DF93EC01CF
:102600006115710539F4CE010E94FF10CE01DF91F2
:10261000CF910895FB0101900020E9F73197AF01B8
:10262000461B570B0E94BE12882369F3EFCFCF934E
:10263000DF93EC01A881B981EB01E881F981109762
:10264000F1F03097B1F4EC018C819D81892BC9F0B8
:102650008C9190E00BC0DB0114968D919C91892B9D
:1026600081F0808190E0919581959109DF91CF91E2
:102670000895BF01CD01DF91CF910C94C018309720
:1026800051F790E080E0F2CFFC0144815581FB01DD
:10269000248135814217530729F40E94171321E042
:1026A000892B09F020E0822F0895FC0124813581D7
:1026B0006217730748F480819181009729F0860F93
:1026C000971FFC018081089580E008950C945513B4
:1026D000CF93DF93FC01248135814217530788F49F
:1026E000C081D181062E000C770BCE01840F951F7F
:1026F0000E94B518009729F08C1B9D0BDF91CF919C
:1027000008958FEF9FEFFACF50E040E00C946813EC
:1027100008955058BB27AA270E94A1130C941B159B
:102720000E940D1538F00E94141520F039F49F3FD7
:1027300019F426F40C940A150EF4E095E7FB0C94BA
:102740000415E92F0E942C1558F3BA176207730776
:102750008407950720F079F4A6F50C944E150EF435
:10276000E0950B2EBA2FA02D0B01B90190010C01A1
:10277000CA01A0011124FF27591B99F0593F50F4B9
:10278000503E68F11A16F040A22F232F342F442711
:10279000585FF3CF469537952795A795F040539509
:1027A000C9F77EF41F16BA0B620B730B840BBAF0D9
:1027B0009150A1F0FF0FBB1F661F771F881FC2F744
:1027C0000EC0BA0F621F731F841F48F48795779558
:1027D0006795B795F7959E3F08F0B0CF9395880F12
:1027E00008F09927EE0F9795879508950E94E014B9
:1027F00008F481E008950E940F140C941B150E94A8
:10280000141558F00E940D1540F029F45F3F29F08F
:102810000C94041551110C944F150C940A150E9438
:102820002C1568F39923B1F3552391F3951B550BA0
:10283000BB27AA2762177307840738F09F5F5F4F93
:10284000220F331F441FAA1FA9F335D00E2E3AF0D2
:10285000E0E832D091505040E695001CCAF72BD0EA
:10286000FE2F29D0660F771F881FBB1F261737073B
:102870004807AB07B0E809F0BB0B802DBF01FF276D
:1028800093585F4F3AF09E3F510578F00C94041531
:102890000C944F155F3FE4F3983ED4F386957795FB
:1028A0006795B795F7959F5FC9F7880F911D969526
:1028B000879597F90895E1E0660F771F881FBB1F82
:1028C000621773078407BA0720F0621B730B840B2F
:1028D000BA0BEE1F88F7E09508950E94741468946F
:1028E000B1110C944F1508950E94341588F09F572C
:1028F00098F0B92F9927B751B0F0E1F0660F771F24
:10290000881F991F1AF0BA95C9F714C0B13091F019
:102910000E944E15B1E008950C944E15672F782F44
:102920008827B85F39F0B93FCCF3869577956795DE
:10293000B395D9F73EF490958095709561957F4F4A
:102940008F4F9F4F0895E89409C097FB3EF49095F0
:102950008095709561957F4F8F4F9F4F9923A9F078
:10296000F92F96E9BB279395F69587957795679507
:10297000B795F111F8CFFAF4BB0F11F460FF1BC04B
:102980006F5F7F4F8F4F9F4F16C0882311F096E9DE
:1029900011C0772321F09EE8872F762F05C066238C
:1029A00071F096E8862F70E060E02AF09A95660F45
:1029B000771F881FDAF7880F9695879597F90895FE
:1029C000990F0008550FAA0BE0E8FEEF1616170640
:1029D000E807F907C0F012161306E407F50798F0A8
:1029E000621B730B840B950B39F40A2661F0232BC1
:1029F000242B252B21F408950A2609F4A140A6953D
:102A00008FEF811D811D089597F99F6780E870E021
:102A100060E008959FEF80EC089500240A94161654
:102A2000170618060906089500240A9412161306BC
:102A3000140605060895092E0394000C11F488234A
:102A400052F0BB0F40F4BF2B11F460FF04C06F5F66
:102A50007F4F8F4F9F4F089557FD9058440F551F3C
:102A600059F05F3F71F04795880F97FB991F61F010
:102A70009F3F79F087950895121613061406551F87
:102A8000F2CF4695F1DF08C0161617061806991FF3
:102A9000F1CF86957105610508940895E894BB27E8
:102AA00066277727CB0197F908950E94E01408F470
:102AB0008FEF08950E946D150C941B150E940D1543
:102AC00038F00E94141520F0952311F00C94041591
:102AD0000C940A1511240C944F150E942C1570F3B8
:102AE000959FC1F3950F50E0551F629FF001729FB3
:102AF000BB27F00DB11D639FAA27F00DB11DAA1FC2
:102B0000649F6627B00DA11D661F829F2227B00D0E
:102B1000A11D621F739FB00DA11D621F839FA00D99
:102B2000611D221F749F3327A00D611D231F849FE9
:102B3000600D211D822F762F6A2F11249F57504040
:102B40009AF0F1F088234AF0EE0FFF1FBB1F661FBB
:102B5000771F881F91505040A9F79E3F510580F084
:102B60000C9404150C944F155F3FE4F3983ED4F396
:102B7000869577956795B795F795E7959F5FC1F728
:102B8000FE2B880F911D9695879597F908950E94C1
:102B9000FB1530F09F3710F40C944F150C94D215A0
:102BA0000C94ED15882371F4772321F09850872B2E
:102BB000762F07C0662311F499270DC09051862BFC
:102BC00070E060E02AF09A95660F771F881FDAF7A9
:102BD000880F9695879597F908959F3F31F091500A
:102BE00020F4879577956795B795880F911D9695F1
:102BF000879597F908950E943415A0F0BEE7B9179C
:102C000088F4BB279F3860F41616B11D672F782F04
:102C10008827985FF7CF869577956795B11D93952F
:102C20009639C8F30895DB018F939F930E9478161D
:102C3000BF91AF91A29F800D911DA39F900DB29F58
:102C4000900D1124089597FB072E16F4009407D0D9
:102C500077FD09D00E94831607FC05D03EF49095BD
:102C600081959F4F0895709561957F4F0895A1E2DA
:102C70001A2EAA1BBB1BFD010DC0AA1FBB1FEE1FF6
:102C8000FF1FA217B307E407F50720F0A21BB30B41
:102C9000E40BF50B661F771F881F991F1A9469F7BD
:102CA00060957095809590959B01AC01BD01CF0119
:102CB0000895052E97FB1EF400940E94701657FD90
:102CC00007D00E94371607FC03D04EF40C94701600
:102CD00050954095309521953F4F4F4F5F4F089548
:102CE00090958095709561957F4F8F4F9F4F089578
:102CF0000E949D16A59F900DB49F900DA49F800DDE
:102D0000911D11240895AA1BBB1B51E107C0AA1FE6
:102D1000BB1FA617B70710F0A61BB70B881F991F7C
:102D20005A95A9F780959095BC01CD010895EE0FB5
:102D3000FF1F0590F491E02D0994A29FB001B39F6D
:102D4000C001A39F700D811D1124911DB29F700DB4
:102D5000811D1124911D0895EF920F931F93CF931E
:102D6000DF93E80134E047FD34E1042E000C550BFD
:102D700057FF03C0519541955109E32E022F242F8F
:102D8000AE010E943819CE01DF91CF911F910F91B2
:102D9000EF9008950F931F93CF93DF9382309105A7
:102DA00010F482E090E0E091FD03F091FE0330E04A
:102DB00020E0B0E0A0E0309799F42115310509F446
:102DC0004AC0281B390B24303105D8F58A819B81F4
:102DD0006115710589F1FB0193838283FE0111C0A6
:102DE000408151810281138148175907E0F048174B
:102DF000590799F4109761F012960C931297139655
:102E00001C933296CF01DF91CF911F910F910895BE
:102E10000093FD031093FE03F4CF2115310551F00B
:102E20004217530738F0A901DB019A01BD01DF0108
:102E3000F801C1CFEF01F9CF9093FE038093FD031A
:102E4000CDCFFE01E20FF31F819391932250310900
:102E500039832883D7CF2091FB033091FC03232BA8
:102E600041F420910201309103013093FC0320933F
:102E7000FB0320910001309101012115310541F43E
:102E80002DB73EB74091040150910501241B350B2D
:102E9000E091FB03F091FC03E217F307A0F42E1B73
:102EA0003F0B2817390778F0AC014E5F5F4F2417AE
:102EB000350748F04E0F5F1F5093FC034093FB0310
:102EC000819391939FCFF0E0E0E09CCFCF93DF938D
:102ED0000097E9F0FC01329713821282A091FD0362
:102EE000B091FE03ED0130E020E01097A1F42081C5
:102EF0003181820F931F2091FB033091FC0328172F
:102F0000390709F061C0F093FC03E093FB03DF9104
:102F1000CF910895EA01CE17DF07E8F54A815B817A
:102F20009E0141155105B1F7E901FB83EA834991FF
:102F30005991C40FD51FEC17FD0761F48081918171
:102F40000296840F951FE90199838883828193817A
:102F50009B838A83F0E0E0E012968D919C91139719
:102F60000097B9F52D913C911197CD010296820FF2
:102F7000931F2091FB033091FC032817390739F682
:102F8000309751F51092FE031092FD03B093FC03AD
:102F9000A093FB03BCCFD383C28340815181840FB4
:102FA000951FC817D90761F44E5F5F4F88819981DB
:102FB000480F591F518340838A819B819383828369
:102FC0002115310509F0B0CFF093FE03E093FD0326
:102FD0009ECFFD01DC01C0CF13821282D7CFB0E0BB
:102FE000A0E0E5EFF7E10C94811B8C01009751F410
:102FF000CB010E94CA168C01C801CDB7DEB7E0E153
:103000000C949D1BFC01E60FF71F9C012250310917
:10301000E217F30708F49DC0D901CD91DC91119717
:10302000C617D70798F0C530D10530F3CE01049705
:103030008617970708F3C61BD70B2297C193D19326
:103040006D937C93CF010E946617D6CF5B01AC1ABB
:10305000BD0A4C018C0E9D1EA091FD03B091FE0394
:10306000512C412CF12CE12C109731F58091FB0370
:103070009091FC038815990509F05CC04616570627
:1030800008F058C08091000190910101009741F42F
:103090008DB79EB74091040150910501841B950B9B
:1030A000E817F90708F055C0F093FC03E093FB0321
:1030B000F90171836083A0CF8D919C911197129635
:1030C0006C90129713967C901397A815B90559F533
:1030D0006C0142E0C40ED11CCA14DB0420F1AC0127
:1030E0004A195B09DA011296159780F062827382A1
:1030F00051834083D9016D937C93E114F10471F005
:10310000D7011396FC93EE93129776CF22968C0FED
:103110009D1FF90191838083F301EFCFF093FE03AC
:10312000E093FD0369CF4816590608F42C017D0190
:10313000D3019ACFCB010E94CA167C01009749F0B7
:10314000AE01B8010E94AC18C8010E946617870141
:1031500053CF10E000E050CFFB01DC0102C0019032
:103160000D9241505040D8F70895FC018191861787
:1031700021F08823D9F7992708953197CF01089531
:10318000FB01DC018D91019080190110D9F3990B9D
:103190000895FB01DC0101900D920020E1F70895F4
:1031A0004532510520F4423010F00C94DB18FB013D
:1031B0001082CB010895BB274A3031F4992322F4C1
:1031C000BDE2909581959F4F0C941F1925323105D2
:1031D00020F4223010F00C94F118FA011082CA0188
:1031E0000895BB27FA01A62F621771058105910585
:1031F000330B30FB66F0AA27660F771F881F991FD5
:10320000AA1FA21710F0A21B63953850A9F7A05D62
:10321000AA3308F0A95DA19336F7B111B1931082DA
:10322000CA010C946F1B4532510520F4423010F056
:103230000C941E19FB011082CB010895BB27FB01E2
:103240005527AA27880F991FAA1FA41710F0A41B9F
:1032500083955051B9F7A05DAA3308F0A95DA193F9
:10326000009779F7B111B1931192CB010C946F1BB8
:10327000A9E0B0E0EEE3F9E10C94851B6A01F22EBF
:10328000B02E102FFBE3AF2EA01608F41BE31F5F38
:10329000012F27E0AE014F5F5F4F0E94971ABC01DC
:1032A0008981982F9970913009F43FC09BE2E1FC2D
:1032B00004C09E2D9170E0FC3AC05E2D5071E82F45
:1032C000E87083FF46C084E0911101C083E0EF2DD8
:1032D000E81B8F1508F0E0E0D6018E2F20E2552381
:1032E00051F1992329F0D6019C93C60101966C01F6
:1032F00096012D5F3F4FE2FE24C08EE4D6018C93F1
:1033000091E411969C93119712968C93D9018E2F6C
:1033100090E281111BC0E20FF32FF11D10828EEF9E
:103320009FEF2996ECE00C94A11B9DE2C6CF90E2A2
:10333000C4CF2D9381508111FCCFCE0ED11CE0E083
:10334000D0CF8EE6D6018C9391E6DBCF9D93815052
:10335000E0CF482F447082FF3DC084E0911101C04E
:1033600083E08F1510F4EF2DE81BD6018E2F20E29D
:10337000552309F1992329F0D6019C93C6010196A2
:103380006C0196012D5F3F4FE2FE1BC089E4D60120
:103390008C938EE411968C93119786E412968C93FD
:1033A000D9018E2F90E2882309F4B5CF9D938150E7
:1033B000FACF2D9381508111FCCFCE0ED11CE0E0CD
:1033C000D9CF89E6D6018C938EE611968C9311970E
:1033D00086E6E4CF9B0177FF02C030E020E0A1E069
:1033E000B0E0911102C0B0E0A0E0F9013196AE0F5B
:1033F000BF1F8B2C912CBB2009F461C05401EFEF4F
:10340000AE1ABE0AAA0DBB1DFA161B0619F014F05F
:103410004F2D4A1B511188C0E3FC59C07601A42FDF
:10342000B0E2A1114FC0C40ED11C992309F45BC0B6
:1034300040E0D6011196F60190836D01552309F401
:1034400048C0012F060F9A81582F507184FF03C086
:10345000913309F4015010160CF047C0093008F000
:1034600008E0EEE2FE2E5B01A01AB10885019194FE
:10347000819491082F3F320729F4D601FC92F6017E
:1034800031966F016217730794F1021713077CF5E9
:10349000DB01A21BB30BAA24A394B12CAC0EBD1E5E
:1034A000AA0DBB1D11968C9121503109D6011196A0
:1034B00028153905F4F0F60180836D01DBCFB12CBE
:1034C000A12CA0CFF701B1937F01A150AACF9111F8
:1034D000B0CFD601942F50E302C05D93915091116B
:1034E000FCCFC40ED11C40E0ACCF01E0BACF80E3EA
:1034F000DBCF6217730731F4963388F4953311F4F8
:10350000552369F0F6018083FD01842F90E281113B
:1035100008C0A40FB11D1C9290E080E002CF81E3AF
:10352000F1CF91938150F3CF911183CF8ACF28307F
:1035300008F027E03327DA01990F311D87FD9160EC
:1035400000966105710539F432602E5F3D9330E3DA
:103550002A95E1F708959F3F30F0803871056105A5
:1035600009F03C5F3C5F3D93913008F08068911D0D
:10357000DF93CF931F930F93FF92EF92192F987FB2
:103580009695E92F96959695E90FFF27EE53FF4FF5
:1035900099273327EE24FF24A701E701059008941B
:1035A000079428F4360FE71EF81E491F511D660FB9
:1035B000771F881F991F0694A1F70590079428F498
:1035C000E70EF81E491F561FC11D770F881F991F50
:1035D000661F0694A1F70590079428F4F80E491F7A
:1035E000561FC71FD11D880F991F661F771F06948E
:1035F000A1F70590079420F4490F561FC71FD81F45
:10360000990F661F771F881F0694A9F7849110955C
:10361000177041F0D695C79557954795F794E7945D
:103620001A95C1F7E8E6F0E0689415901591359188
:103630006591959105907FE27395E118F10A430B2E
:10364000560BC90BD009C0F7E10CF11E431F561FE2
:10365000C91FD01D7EF4703311F48A95E6CFE8942B
:10366000015030F0080F0AF40027021708F4202F49
:103670002395022F7A3328F079E37D932A95E9F791
:1036800010C07D932A9589F606949795679537958E
:1036900017951794E118F10A430B560BC90BD00983
:1036A00098F023957E9173957A3308F070E37C93BC
:1036B0002013B8F77E9170617D9330F0839571E3AC
:1036C0007D9370E32A95E1F71124EF90FF900F911D
:1036D0001F91CF91DF91992787FD90950895DC0187
:1036E000FC01672F71917723E1F7329704C07C9139
:1036F0006D9370836291AE17BF07C8F308952F9240
:103700003F924F925F926F927F928F929F92AF9271
:10371000BF92CF92DF92EF92FF920F931F93CF93BE
:10372000DF93CDB7DEB7CA1BDB0B0FB6F894DEBF55
:103730000FBECDBF09942A88398848885F846E847B
:103740007D848C849B84AA84B984C884DF80EE80C5
:10375000FD800C811B81AA81B981CE0FD11D0FB6CE
:10376000F894DEBF0FBECDBFED01089510E0C0EEAE
:10377000D0E004C0FE010E9497162196C13ED107F9
:06378000C9F7F894FFCF29
:103786000000FF03800001000080BF000080BF0131
:1037960045010000010101012000000000000000B9
:1037A60030010101010101003100010100000000AA
:1037B6003201010001010001330101010100000194
:1037C6003400010100000101350100010100010181
:1037D600360100010101010137010101000000006D
:1037E6003801010101010101390101010100010155
:1037F6004F01010101010100460100000001010124
:103806004E010101000101002D0000000000000131
:103816000A0D006C6F6E672062656174004F4E0082
:103826004F464600202D20007C2074656D70417641
:10383600673A20002C20706F743A20002C206865AF
:10384600617465723A20002020200045303300451F
:103856003034004531300045303100453032004FBC
:103866004E2000506F776572206D6F64653A204870
:103876004947482028002900506F776572206D6FF0
:1038860064653A204C4F5720280000FFFE0201567F
:10389600696E3A20002F3700203D200029200000C5
:1038A600000000410D8F0EE20C210DB40CCE0CC0B1
:0438B6000C0D0A00EB
:00000001FF
